:100000000C9486070C94AE070C94AE070C947519EB
:100010000C9475190C9475190C94AE070C94AE07DA
:100020000C94AE070C94AE070C94AE070C94AE077C
:100030000C94AE070C94AE070C94AE070C94AE076C
:100040000C942B190C94AE070C94F9180C94D3183B
:100050000C94AE070C94AE070C94AE070C94AE074C
:100060000C94ED190C94AE07036EDB363D9A99990A
:10007000993DABAAAA2A3E000000803F072C7AA532
:10008000BA6CC590DA3B9365FC8BBC53F810FD3C11
:100090005692834DBD879D3AB63DCBC9BF5BBE73BB
:1000A000DA0FC93F00000000240027002A000000EA
:1000B0000008000201000003040700000000000027
:1000C00000000000000023002600290000000000BE
:1000D000250028002B000404040404040404020284
:1000E00002020202030303030303010204081020B7
:1000F00040800102040810200102040810205F0063
:10010000030204040304050A0B00FE08FE08FE01B6
:100110006002DC041D200500CC09210781C5894B44
:10012000002207336D8AC412231287C4BB2453A252
:10013000614AC2241AA6444B32002410A5BDAB6C00
:1001400050A22413B5244A062D02250F86C59B4CC8
:10015000699992308996162D01260F85459C29892B
:1001600092484A1265882225270631ED890128091F
:10017000A2359A44E92909290BA2358A244ABA28CA
:1001800009002A0944E59A684824052B0B77C4BB6B
:10019000B8360C595C032C0842B5892151002D0654
:1001A000125D0A012E0611C589002F0CA5B4CA2CB8
:1001B000AC8559580B01300E86C49B21AA848E4908
:1001C000140D0900310782C60BA51F320B85C59B94
:1001D000250B33C96D10330C85C58B210D93350C60
:1001E0000705340E86C43B514BA28A940C639A00D7
:1001F000350C84C58B41CBC62C1B1200360D85C532
:100200009B21C9C221C96CC902370C85C58B41CC61
:1002100032ADA68500380D85C59B25D39245D9B44E
:100220006401390E85C59B25DAB46408B3644800BF
:100230003A0661C589303B0681B589703C0A76C4AF
:10024000DBCC24AB72003D0736D48BF3303E0B760B
:10025000C48B5895254D4B013F0B84C48A318B6A62
:10026000391001401288C6BC21D29464514A4A49CF
:1002700031E5C81001410F8744BC744CC2242B0DDA
:100280005296A401420F85458B21C9B44189924CF5
:100290001B1400430C8645AC21C9D4E62C1A024439
:1002A0000D87458C410A93D463324800450B854540
:1002B0008B633824617110460A84458B41AB0D5A1B
:1002C0000D470D8645AC21C9D4A29864D110480BC6
:1002D00086458CD0380CA26300490781C58983000C
:1002E0004A08A3B4A9FEB4004B0D86C58B6CAA6462
:1002F000B7448A944C4C0985458BB08F83004D11CF
:1003000087C50C6DC8866CA92815A522456A004EC4
:100310000F86458C701B2225921269C8C6004F0CAF
:1003200087C5ACAD92BA26593601500C85458B2154
:10033000C94CC31216015113A8B5AC318BD2244D50
:10034000D2248D326DC8011D10521086C58B21CA72
:10035000922C89A22DAA259900530C85449B254CEB
:10036000D5541B1400540987C48B4316F70D550A46
:1003700086458CD08FC99000561087C48B34C994A1
:100380002CCA2A6112AE1900571289C48C2CD32AA8
:100390009D92A6A4296953C42C02580E87C40B4D04
:1003A000C92AA93826594513590D87C40B4DC92AA6
:1003B0006192C66D005A0B86C48B6328B686C30053
:1003C0005B08A2358AA55F045C0BA5B48A34AC86B1
:1003D00069580D5D08A2340AA55F065E0A76CCBB9B
:1003E000D016F512065F06153C8B41600612FE0B17
:1003F00001610C65459B258A9628892225620C851A
:10040000C58B301C92CC695800630964459B41CA76
:10041000326D640B85C5CBCA3069B66408650B655F
:10042000449B251B86501C02660B94442A258BA6F0
:10043000AC1300670D85B59B61D26CC9100E0A0024
:10044000680A85C58BB062D2DC02690781C5896400
:10045000186A09A3B4A934EA69016B0C85458BB00D
:10046000B444A74489046C0781C58983006D0E6973
:10047000458D6431D9322DD332AD006E0965C58BFF
:10048000C4A4B9056F0C66C49B21914671528604C1
:10049000700C85B58B21C99C86250C01710B85B527
:1004A0009B61D26CC91016720963C58A64899A006F
:1004B000730A64459B2113A72101740A74449A6846
:1004C00048B24601750965C58BCC93A204760C66CB
:1004D000448B30899A864C9400770E68448CC829E6
:1004E00049944829394500780C66C40B495132516A
:1004F0008B1249790D86348B3089DA36510C3500F0
:100500007A0B65458B41CB242D1B047B0AA334AAAF
:10051000246A91DA027C07A1B58987007D0BA33597
:100520008A2C2A29514B047E0936D41B49312900D3
:1005300000000004FFFF0000800003030405040521
:10054000060F1000FE0EFE0EFE000000000002006E
:10055000000004FFFF25800988D0A2F83F04258110
:100560000828D0A1781025820948D0A1F88100255B
:10057000830968D0A1F8070325840988D0A1F83F32
:1005800004258509A8D0A1F8FF3025860AC8D0A186
:10059000F8FF4301258709E8D0A1F8FF1F25880A45
:1005A00008D1A1F8FF7F1025890907D1A1F8FF1F05
:1005B000258A0A06D1A1F8FF4301258B0905D1A19F
:1005C000F8FF30258C0904D1A1F83F04258D0903DB
:1005D000D1A1F80703258E0902D1A1F88100258F4A
:1005E0000801D1A1781025900904D9A1F83F04256C
:1005F000911C07D1A1880563B2604C168CC9823169
:100600005930260BC664C1982C180B25922608D1A8
:10061000A188648AA44832455224992229924C9197
:100620001449A6488A2453244592299222C914C900
:100630000025932308D1A1984C2293CA2432A94CB7
:100640002293CA2432A94C2293CA2432A94C229361
:10065000CA2432112594082890A378102595080102
:10066000DFA1781025960984D0A1F881002597098B
:1006700084D8A1F8810025980984D0A2F8810025AA
:10068000990C08D1A120F2C7C3FF10259A0C08D1FC
:10069000A120F27708913F259B0C08D1A1F83F14C7
:1006A000F92300259C0B08D1A1F83F04F907259DEB
:1006B0000984D8A2F88100259E0C08D1A1E48F8777
:1006C000207F04259F0C08D1A1E48F87FFA100257E
:1006D000A0087712A2F80F25A10B7732A238447533
:1006E0003D0425A20C7732A2A944758D540025A3A0
:1006F000107732A238442513C94432911E0225A432
:100700000D7732A238440FD283F41025A512773228
:10071000A238445224299214498A24E51025A610AF
:100720007732A23844520E92948324E51025A71202
:100730007732A2384442A3D02822098D428700256F
:10074000A8127732A2388822A29024448A8842874D
:100750000025A9127732A2384452269149CA243280
:1007600049390425AA084454A2781025AB094494B9
:10077000A228890A25AC084792A2F80125AD0B47AB
:1007800092A23844A5870025AE087454A2F801252A
:10079000AF097454A228E95425B0093890A2B238A0
:1007A0000125B10B3890A2B20423260025B20C66B5
:1007B00072A212CA4894430125B30C6672A212CAEF
:1007C0004259820725B4093672A292510C25B50A06
:1007D0003672A29285220625B60D6672A210920E7E
:1007E0000791100025B70E6672A2104644B115910C
:1007F000100025B80A4494A2101D460025B90B44E8
:1008000094A2104526240025BA0C5672A210920E0E
:1008100023210025BB0D5672A2104644B189480819
:1008200025BC0D6672A238544834A1080025BD0DC0
:100830006672A2384642D984220025BE0A3672A2C8
:10084000B0D0440025BF0B3672A2B08462220025CE
:10085000C00C6672A2141D0E22A20025C10D667284
:10086000A2144966B390242825C2094494A23A8C64
:100870000425C30A4494A2A24C420225C40B56721A
:10088000A2141D46440125C50D5672A214496621C5
:1008900049500025C60D7752A28BCE2A97DA34062E
:1008A00025C7107752A28B466229D1482C251A03FE
:1008B00025C8117752A28B4662912C93DC22D11865
:1008C0000025C9117752A29AA544449289489216EC
:1008D0001B0125CA11A632A212CA425982C2482857
:1008E0009B500425CB0F7752A29AA5445523B1D82B
:1008F000080025CC117752A28AC441D138201A07AA
:1009000045420025CD117752A29A492459242992B3
:100910002C6A230025CE117752A29AA58442921404
:10092000514A2C360225CF0D7752A29A550E2FB57B
:10093000110025D00F7752A29A892233B688283623
:100940000225D10F7752A29A852431B64948360242
:1009500025D20E7752A29AA544A587486D0425D3C7
:100960000F7752A29A550E516924161B0125D40FF8
:100970007752A29A4526A1D6482C360225D50F7764
:1009800052A29A852431DA61521B0125D60C745289
:10099000A2921C0E91910025D70D7458A2104D0EF5
:1009A0008788080025D80F08D1A1F80FA222B174BA
:1009B000F8070125D91408D1A1F887504532A1487C
:1009C000281349E9F0870025DA0D88D0A2F887506E
:1009D0004532A10425DB0E88D0A188502692D2E1B1
:1009E0000F0125DC0B44B2A2928462310025DD099F
:1009F00044B8A210A60525DE0A4458A24B8A8800F6
:100A000025DF0A4452A28805830225E00B47B2A2E3
:100A10009AA544A50125E10D4752A2884A23B1D8E1
:100A2000080025E20C66F2A10DCA4694030125E3F5
:100A30000C66F2A1880A67A48A0125E40D66D2A299
:100A40003850483361140025E50C66D2A2B0946892
:100A500043690025E60C5552A299C4D422130025FF
:100A6000E70A6672A23888381D25E80A6672A2383D
:100A7000713A0825E90C6672A2384C4833E1012529
:100A8000EA0C6672A238CA4694C30025EB1067725E
:100A9000A2388442A29028240A1D0225EC10775225
:100AA000A28B468291585224EB210025ED0D66520F
:100AB000A212CA242149647425EE0F7652A212CAEA
:100AC00022A28824443A0825EF23DDF4C19D436423
:100AD000D238201607A5832271A01C280746E2A061
:100AE00074502C0E88CAE490290025F00C6612A2DE
:100AF000B8844842E10125F10C6612A2380A4992F5
:100B0000D00125F20B6612A2382A91220725F30C98
:100B10006612A238454444E10125F4138810A2A2CC
:100B200045429150AC2616478231120025F51288B5
:100B300010A2A2052361714D148B24C5480025F62F
:100B4000128810A2A2052361B55A28128AC448004F
:100B500025F7128810A2A28522692159591C09C6BD
:100B6000480025F80E66D2A2B8454229316114002A
:100B700025F90E66D2A2B0C4426991A0340025FACC
:100B80000E66F2A1880A23B1505AC40025FB0966FB
:100B9000F2A1386A3C25FC096612A2F8430025FD43
:100BA000094414A228890A25FE085532A2F84025D6
:100BB000FF0D66F2A10DCA22A194D80100005F00CA
:100BC00002020303030404050700FF06FF060001F9
:100BD00012022F032C200500BD012106B1B11929F5
:100BE00022075BB7495600230A2DB1AB86AA86AA15
:100BF00000240A2DB15B35D820A505250934B1C9DB
:100C000020F6060126092CB18B29563105270599B6
:100C1000B719280772B153CD00290872B189A952BA
:100C2000002A076BB149D56A2B0A2DB1CD280E9940
:100C300051042C075BAF5325002D060CB519012E6E
:100C40000652B119012F0724B307B10D300873B153
:100C5000AB5C1500310773B14BB235320A34B15376
:100C60003183588E00330B34B11919248D6452002E
:100C7000340A34B18DAA1A318304350A34B1191AF1
:100C80006C249302360A34B15319AC289302370B03
:100C900034B11919C40C620611380A34B15331A9A0
:100CA000289302390A34B15351A60D92023A076AC9
:100CB000B11971043B0833AFB3912A013C086BB101
:100CC0004D35C8203D081CB319198D003E096BB184
:100CD000C9208354023F0973B16BA60C130040096D
:100CE00034B15351DD4801410934B153518E2903C8
:100CF000420A34B15971A4284702430B34B153510D
:100D0000830C625200440934B159D1391200450BA9
:100D100034B1191AAC0C321801460B34B1191AACA3
:100D20000C32C800470A34B153518334D300480809
:100D300034B189724C33490773B159B1354A0B3418
:100D4000B107196490814C0A4B0A34B1892A499938
:100D5000CA004C0C34B1C920830C32C860044D0960
:100D600034B189E38866004E0834B1896BA9334FEA
:100D70000934B153D1991400500A34B159518E94A9
:100D80004106510A3CAF53D15C49A300520934B12A
:100D900059518ED40C530A34B1533165542605543D
:100DA0000773B159B10B550834B1899E49015609F1
:100DB00034B189CE241500570934B189E638620070
:100DC000580A34B1893249156500590873B149563A
:100DD00059015A0A34B11919C43618015B0773B1A5
:100DE00019B1395C0924B3C928A38C025D0773B11A
:100DF00099CD115E0553B96B5F060CB11901600600
:100E000052B98901610824B11B51A902620B34B1A6
:100E1000C9208315E54800630723B19B1908640ABC
:100E200034B10719A411651A650924B1536964A086
:100E300000660934B1ADCA99410467092CAF1B3172
:100E4000A98C06680A34B1C9208315CD00690873DE
:100E5000B1CB4856036A097BAFCDB05415006B0B7C
:100E600034B1C9208394642A036C0773B1915D0384
:100E70006D0824B1496948196E0724B159D10C6F26
:100E80000824B15351260570092CAF59518E940195
:100E900071092CAF1B51A60D02720824B159518360
:100EA0000C730824B11B1A0D05740A34B1CB20CE83
:100EB0000C3212750724B189661A760763B1495658
:100EC00005770724B189721C780824B18949AA18CA
:100ED00079092CAF89329525007A0824B119B11C03
:100EE000017B0873B14D49D6207C05B1B1397D0A2B
:100EF00073B1C920AA9822007E0714B94B2A0100B9
:100F0000000004FFFF0000000C1BD82411241FBEAA
:100F1000CFEFD8E0DEBFCDBF12E0A0E0B1E0E8E364
:100F2000F1E502C005900D92AC37B107D9F726E084
:100F3000ACE7B2E001C01D92A03AB207E1F717E0BA
:100F4000C5E8D7E004C02197FE010E945428C438A8
:100F5000D107C9F70E94D21C0C948F280C94000072
:100F6000662329F06A3019F0862F90E008958FEFFC
:100F70009FEF0895CF92DF92EF92FF920F931F930E
:100F8000CF93DF93EC01842F8770E1E0F0E0082E2F
:100F900001C0EE0F0A94EAF73E2F7E0199E7E90EB1
:100FA000F11CD7019C9110E0923018F41E2F913063
:100FB00029F150E0487FE8ADF9ADC880D980D6016D
:100FC00050969C91949F6001959FD00C11246C0DBC
:100FD0007D2D711DDF01A60FB71F011115C08C916A
:100FE000812B83278D932150D1F7DF91CF911F91D2
:100FF0000F91FF90EF90DF90CF90089530E0D9CF20
:10100000110F330F222389F39C91912B93279C93EB
:101010008F5F877021508111F3CF9CADA90FB11D57
:10102000F7019081923028F4913009F031E011E01D
:10103000E9CF31E0E7CF80E0089580E00895CF92D6
:10104000DF92EF92FF92CF93DF93B091F205A0E091
:101050008111AB2F8091F30590E0880F991FAC01AF
:101060004E535F4FC090F805D090F905E090FA0517
:10107000F090FB0530E020E0FA01C591D491E881C1
:10108000B90190E080E0EB23EA130AC02F5F3F4FE5
:101090006C157D058E059F0578F36FEF7FEFCB0113
:1010A000DF91CF91FF90EF90DF90CF90089596E081
:1010B000899FD0011124A458BA4F90967C936E93C7
:1010C0005F9791E091969C939197E091E905F0915B
:1010D000EA059091E805992339F0309751F0811194
:1010E00008C0809198050994309719F05C968C910E
:1010F000FACF08959B01DC011896ED91FC9141E037
:1011000067E10994AF92BF92CF92DF92EF92FF9284
:101110000F931F93CF93DF936C017B018B01040F1F
:10112000151FEB015E01AE18BF08C017D10759F0BB
:101130006991D601ED91FC910190F081E02DC601FD
:101140000995892B79F7C501DF91CF911F910F91F7
:10115000FF90EF90DF90CF90BF90AF900895FC018B
:10116000538D448D252F30E0842F90E0821B930B0C
:10117000541710F0CF96089501970895FC01918DB2
:10118000828D981761F0A28DAE0FBF2FB11D5D96B5
:101190008C91928D9F5F9F73928F90E008958FEF57
:1011A0009FEF0895FC01918D828D981731F0828D0B
:1011B000E80FF11D858D90E008958FEF9FEF089562
:1011C000FC01918D228D892F90E0805C9F4F821BC6
:1011D00091098F739927089583ED93E00E94E008A9
:1011E00021E0892B09F420E0822F089580E090E02F
:1011F000892B29F00E94EC0881110C9400000895BD
:10120000FC01A48DA80FB92FB11DA35ABF4F2C917B
:10121000848D90E001968F739927848FA689B78972
:101220002C93A089B1898C91837080648C93938D69
:10123000848D981306C00288F389E02D80818F7D0C
:1012400080830895EF92FF920F931F93CF93DF93C4
:10125000EC0181E0888F9B8D8C8D98131AC0E889F2
:10126000F989808185FF15C09FB7F894EE89FF89C1
:101270006083E889F98980818370806480839FBF5F
:1012800081E090E0DF91CF911F910F91FF90EF905F
:101290000895F62E0B8D10E00F5F1F4F0F7311276F
:1012A000E02E8C8D8E110CC00FB607FCFACFE889AA
:1012B000F989808185FFF5CFCE010E940009F1CF29
:1012C000EB8DEC0FFD2FF11DE35AFF4FF0829FB71E
:1012D000F8940B8FEA89FB8980818062CFCFCF930E
:1012E000DF93EC01888D8823B9F0AA89BB89E8894E
:1012F000F9898C9185FD03C0808186FD0DC00FB6F4
:1013000007FCF7CF8C9185FFF2CF808185FFEDCF71
:10131000CE010E940009E9CFDF91CF91089583307B
:1013200081F028F4813099F08230A9F00895873057
:10133000A9F08830C9F08430B1F4809180008F7DAD
:1013400003C0809180008F7780938000089584B5DA
:101350008F7784BD089584B58F7DFBCF8091B000D9
:101360008F778093B00008958091B0008F7DF9CF82
:10137000CF93DF93282F30E0F901E255FF4F84919E
:10138000F901E651FF4FD491F901EA52FF4FC491A0
:10139000CC23A1F081110E948F09EC2FF0E0EE0F19
:1013A000FF1FEE53FF4FA591B491EC91ED2381E027
:1013B00090E009F480E0DF91CF91089580E090E023
:1013C000FACF862F0C94B8091F93CF93DF93282F61
:1013D00030E0F901E255FF4F8491F901E651FF4FEA
:1013E000D491F901EA52FF4FC491CC23A9F0162FF2
:1013F00081110E948F09EC2FF0E0EE0FFF1FE453E4
:10140000FF4FA591B4918FB7F894EC91111108C0DA
:10141000D095DE23DC938FBFDF91CF911F9108958C
:10142000DE2BF8CF862F642F0C94E409CF93DF9343
:1014300090E0FC01E651FF4F24918A529F4FFC013E
:1014400084918823C9F090E0880F991FFC01EC5526
:10145000FF4FA591B491FC01E453FF4FC591D49186
:1014600061110DC09FB7F8948C91209582238C93C5
:101470008881282328839FBFDF91CF910895623010
:1014800051F49FB7F8943C91822F809583238C93DD
:10149000E8812E2BEFCF8FB7F894EC912E2B2C9365
:1014A0008FBFEACF862F642F0C94160A3FB7F894AB
:1014B0008091A0039091A103A091A203B091A303F6
:1014C00026B5A89B05C02F3F19F00196A11DB11D9F
:1014D0003FBFBA2FA92F982F8827BC01CD01620FDB
:1014E000711D811D911D42E0660F771F881F991F96
:1014F0004A95D1F708958F929F92AF92BF92CF9263
:10150000DF92EF92FF926B017C010E94560A4B0121
:101510005C01C114D104E104F104B9F00E94560A3F
:10152000681979098A099B09683E7340810591050C
:1015300080F321E0C21AD108E108F10888EE880E94
:1015400083E0981EA11CB11CE4CFFF90EF90DF90C8
:10155000CF90BF90AF909F908F9008950F931F935F
:10156000CF93DF938C01C62F642FCC32E8F4CA32BC
:1015700008F041C0C83271F1C93209F442C080E0BC
:10158000C034D0F1CF73F801EC0FF11D868D8F3F81
:1015900091F1C031E0F00E94B80921E0892B09F4F3
:1015A00020E0F801218F27C0CD3289F140F384EB90
:1015B0008C0F823020F7CF73C00FD12FD11D8E8DAD
:1015C000411133C061E00E94160A60E08E8D0E94D6
:1015D000E40911C0025E1F4FD0E0F80181918F0134
:1015E0008F3F31F061E0D03108F062E00E94160ACE
:1015F000DF5FD63191F781E0DF91CF911F910F919D
:10160000089570E090E080E00E947B0AF4CF85E0CE
:1016100090E0433010F082E090E0880F991F880F2F
:10162000991F05970197F1F7E6CF62E00E94160A2D
:10163000E2CF2FB7F89460919C0370919D03809145
:101640009E0390919F032FBF0895CF92DF92EF9258
:10165000FF920F931F93CF93DF93CDB7DEB7C054A4
:10166000D1400FB6F894DEBF0FBECDBF0E94190B5C
:101670000091F4051091F5052091F6053091F705DC
:101680006B017C01C01AD10AE20AF30A97018601B4
:10169000003D17402105310590F48091FC05C05CA8
:1016A000DE4F0FB6F894DEBF0FBECDBFDF91CF91F6
:1016B0001F910F91FF90EF90DF90CF90089560936E
:1016C000F4057093F5058093F6059093F705109255
:1016D000EF051092EE051092ED051092EC051092B8
:1016E000EB0562E08091F0050E94160A61E070E06F
:1016F00080E090E00E947B0A61E08091F0050E940A
:10170000160A60E08091F0050E94E4098091F105DD
:101710008551823020F58BE291E10197F1F762E08B
:101720008091F0050E94160A8091FD0590E08230BC
:10173000910538F0880F991F880F991F0597019719
:10174000F1F7F89480E00E941F086F3F7F4F8F4FA2
:101750009F4F61F41092FC05789480E0A0CF64E183
:1017600070E080E090E00E947B0AD9CF81E00E9487
:101770001F086F3F7F4F8F4F9F4F61F38E010F5FA9
:101780001F4F6E012FEBC21A2EEFD20A780180E0B4
:101790000E941F08F701608371838283938381E035
:1017A0000E941F08F7016483758386839783F8E09E
:1017B000EF0EF11CEC14FD0451F7789430E020E0BA
:1017C000F801C080D180E280F38044815581668138
:1017D0007781FFEFCF16DF06EF06FF0631F04F3FB0
:1017E0008FEF58076807780719F41092FC05B5CFFA
:1017F000F90183E0F595E7958A95E1F7E551FA4F10
:101800008081880FC416D506E606F70610F180839E
:101810002F5F3F4F085F1F4F2832310589F64091F7
:10182000EF052091EB058091EC05280F3327331F3E
:101830008091ED05280F311D8091EE05820F932FC9
:10184000911D99274817190681F681E08093FC05C0
:1018500026CF8160DCCF0F931F93CF93DF93C82FE8
:10186000D62F86E0C89FF0011124E458FA4F11A248
:10187000878D90A181309105F1F058F0823091056B
:10188000F1F1039709F440C0DF91CF911F910F91BF
:1018900008956623C9F361E070E08C2F0E94570819
:1018A0000E94190B6093D4057093D5058093D605DB
:1018B0009093D705E9CF0E94190B0091D4051091A0
:1018C000D5052091D6053091D705AB01BC01401B51
:1018D000510B620B730B8091E6059091E705B0E028
:1018E000A0E084179507A607B70748F462E070E008
:1018F0008C2FDF91CF911F910F910C94570863E0CB
:1019000070E0D111C1CFF4CF70E060E0F1CF209151
:10191000A6033091A7032817390771F49091A40307
:101920008091A503981741F0E091A403F0E0E55AF7
:10193000FC4F808190E008958FEF9FEF0895089508
:10194000EF92FF920F931F93CF93DF93DC015C968E
:10195000ED90FC905D97E114F10479F481E090E062
:1019600013969C938E93129790E080E0DF91CF9135
:101970001F910F91FF90EF9008955196ED91FC917A
:10198000529750968C915097982F90950FB75E96DE
:101990002C915E97122F127021FD6095F894208192
:1019A000112319F1282B2083E7012197F1F728E073
:1019B000462F50E0308160FF1AC0382B3083E7019A
:1019C0002197F1F7BA0175956795215089F7112391
:1019D00081F08081892380830FBF5C968D919C91DB
:1019E0000197F1F781E090E0C1CF2923DCCF3923C3
:1019F000E5CF9081892BEFCF2091A6033091A703EB
:101A00002817390771F48091A5032091A40390E071
:101A1000805C9F4F821B910960E470E00E941E2849
:101A2000089590E080E008952091A6033091A703E7
:101A300028173907B9F49091A4038091A50398174A
:101A400089F0E091A403F0E0E55AFC4F80812091F9
:101A5000A40330E02F5F3F4F2F7333272093A4035D
:101A600090E008958FEF9FEF0895DC011A96ED91B5
:101A7000FC9130E020E00994DC011696ED91FC9198
:101A800030E020E040E069E10994DC011696ED9138
:101A9000FC9130E020E040E068E109949A01DC012B
:101AA0001696ED91FC91462F67E10994EF92FF9213
:101AB0000F931F93CF93DF931F92CDB7DEB77C01B7
:101AC0008B01D8016C91673129F150F46531A0F494
:101AD0000F90DF91CF911F910F91FF90EF9008959C
:101AE0006A3118F16E3FA1F7F8014181498369E23B
:101AF000C7010E94350D0BC0F80141814983D70110
:101B00001696ED91FC9130E020E0C70109950E5F3B
:101B10001F4FD7CFF80181818983AE014F5F5F4F9F
:101B200061E0C7010E944E0DF2CF0F5F1F4FD7013A
:101B30001696ED91FC9130E020E040E0C701099558
:101B4000C0CF462FDC011696ED91FC9130E020E0ED
:101B500066E10994462FDC011696ED91FC9130E088
:101B600020E065E10994EF92FF920F931F93CF93CA
:101B7000DF93EC01042F79016D3009F446C050F475
:101B80006B30C9F1693009F49FC06A3009F465C04F
:101B900080E046C06E3009F452C06F3099F70E9461
:101BA000450DF7011381110F110F110F6C89160FDD
:101BB00060E4CE010E94AA0D612F62956F70606192
:101BC000CE010E94AA0D612F6F70CE010E94A10D5F
:101BD000F7016481606BCE010E94A10DF701408185
:101BE00051816281660F660F660FCE010E944E0D15
:101BF0000150A1F72EC064EC71E0442311F06FEBAB
:101C000071E0CE010E94560D0AC0411110C068EB70
:101C100071E00E94560DE881F98182898C8B81E008
:101C2000DF91CF911F910F91FF90EF90089561EB9D
:101C300071E00E94560DE881F9818389EFCF0E94FF
:101C4000450D61E8CE010E94AA0D602FCE010E94D1
:101C5000A10DCE010E943C0DE2CFEA85FB8530E06C
:101C600020E040E068E2CE010995EE81FF8130E09E
:101C700020E040E064E1CE01099541E06BE4CE0153
:101C80000E94350DE881F981448169E2CE010E940C
:101C9000350D40E06BE4CE010E94350DE881F981FD
:101CA000448169E2CE010E94350D41E06BE4CE0132
:101CB0000E94350DE881F981458169E2CE010E94DB
:101CC000350D69EC71E09DCF8EEF91E099838883AB
:101CD0001C8AA5CFDC011896ED91FC9130E020E044
:101CE00040E069E10994DC011896ED91FC9130E047
:101CF00020E040E068E10994CF93DF931F92CDB7D5
:101D0000DEB76983BE016F5F7F4F0E947A080F9034
:101D1000DF91CF910895EF92FF921F93CF93DF93BE
:101D2000EC01162F7A010E94730E60E4CE010E942E
:101D30007C0EE885F9859701412F67E1CE01099571
:101D4000CE01DF91CF911F91FF90EF900C946A0E1E
:101D5000EF92FF921F93CF93DF93EC01142F790141
:101D6000663181F138F4643109F44BC0653179F0A2
:101D700080E022C06831C9F150F16931C9F7809122
:101D80005A03882391F1CE010E946A0E2EC08091E1
:101D90005A03882319F0CE010E946A0ECE010E94D8
:101DA000730E60E0CE010E947C0E612FCE010E9476
:101DB0007C0E81E080935A03DF91CF911F91FF90B9
:101DC000EF900895642F0E947C0E81E0F5CF809102
:101DD0005A03882319F0CE010E946A0EA701193117
:101DE00038F4612FCE010E948B0E10925A03EDCF72
:101DF00068E1CE010E948B0E185188E1E80EF11CBB
:101E0000EDCF8E898F3F11F488E78E8BE885F985B9
:101E10009701412F64E1CE01DF91CF911F91FF9097
:101E2000EF9009940F93362FFC01EF5BFF4F608119
:101E3000631B00FD0CC0621BDC01DE963C91DE974B
:101E4000431BD496ED91FC9109950F910895615033
:101E5000F3CFCF93DF93FC01A081B18182AD982FA6
:101E6000990F990F990F95AF50969C91509790327A
:101E700008F09FE1990F990F990F94AF23AD922F1E
:101E8000990F990F990F96AF51963C915197682FE2
:101E9000620F7727771F3617170614F4832F821BDC
:101EA00097AFEF01C05CDF4F880F880F880F890F55
:101EB0008883219680EF888354968D919C915597C5
:101EC000813F910508F48883EE5BFF4F56968C9115
:101ED0008083DF91CF9108950F93FC01EB5BFF4F5F
:101EE000308131965081451730F4301738F004179F
:101EF00028F080E013C03017D0F3FBCFFC01ED5B7E
:101F0000FF4F30818C5B9F4FFC018081681740F44C
:101F100081E0321718F081E0261758F70F910895E5
:101F20003217C8F3E6CF2F923F924F925F926F9293
:101F30007F928F929F92AF92BF92CF92DF92EF9259
:101F4000FF920F931F93CF93DF93EC014C0183E437
:101F5000880E911CF4011082329720805E01F4E417
:101F6000AF0EB11CF50120823FAC6E01F5E4CF0E3F
:101F7000D11CF6013082359740807E01F6E4EF0EE9
:101F8000F11CF701408234961081329760803196BF
:101F9000708032975080012F262D472D652DCE0160
:101FA0000E946C0FCD58DF4F811114C01882DF9151
:101FB000CF911F910F91FF90EF90DF90CF90BF9046
:101FC000AF909F908F907F906F905F904F903F90D9
:101FD0002F90089581E08883552011F0F4015082FC
:101FE000621410F4F5016082371410F4F601708267
:101FF0001415E8F6F7011083DACF0F93DC01802F78
:10200000FD01ED58FF4F90819923E9F12223D9F189
:10201000223020F0023079F56F5F621B082F0170CB
:10202000FD0180FD32C0EB5BFF4F8081481758F106
:1020300031968081481738F53297908131978081A9
:10204000260F2617F0F46917D8F42FEF290F8217FF
:10205000D0F4681708F4682F291708F4922F961BFC
:10206000D696ED91FC91D7970480F581E02D292F2C
:10207000CD01099508C0033089F64F5F421BCECFD2
:10208000682F691720F30F910895ED5BFF4F808152
:102090006817C8F3319680816817A8F73296908147
:1020A00031978081240F241778F4491760F42FEFBB
:1020B000290F821740F7481708F4482F291708F40A
:1020C000922F941BCDCF482F4917E8F6F2CF21303D
:1020D00039F020F0223031F0840F0895860F0895F2
:1020E000841B0895861B0895213039F020F022309A
:1020F00031F0861B0895840F0895860F0895841B80
:1021000008955F926F927F928F929F92AF92BF924B
:10211000CF92DF92EF92FF920F931F93CF93DF93B3
:102120005C01162F642EEC01C15BDF4FDC80ED807B
:102130004C0189E7880E911CFE80FD18C12EF11616
:1021400008F4CF2C5B800C85202F4E2D6D2D8A81BD
:102150000E946710782E202F4E2D6D2D852D0E9408
:102160007410482F662071F08A85F40180832C2D2D
:10217000672DC5010E94FD0F1F1548F01F19E3943C
:10218000D12CDACF89858111F7CF8B85EECF1D0D4C
:102190001C83ED82DF91CF911F910F91FF90EF9003
:1021A000DF90CF90BF90AF909F908F907F906F9077
:1021B0005F900895DC0118964C911897ED91FC9171
:1021C0001197249130E0042E02C0359527950A948A
:1021D000E2F7842F860F883068F031961196FC93D1
:1021E000EE93E49198E0941B01C0EE0F9A95EAF704
:1021F0002E2B885018968C938FEF9FEF01C0880F7D
:102200006A95EAF7809582230895FC01E60FF11D97
:10221000849190E0982F88273196E4918E0F911D3C
:102220000895CF93DF9320916C0630916D062817A7
:10223000390709F490C0EC0190936D0680936C0609
:10224000FC01849180937D063196E491E0937E06B3
:10225000FE013296E491E0937F06FE013396E4910D
:10226000E0938006FE013496E491E0938106FE013E
:102270003596E491E0938206FE013696E491E09370
:102280008306FE013796E491E0938406FE013896BA
:10229000E491E0938506FE013996E491E093860689
:1022A000FE013A96E491E0938706FE013B96E491A5
:1022B000E0938806FE013C96E491E0938906FE01D6
:1022C0003D96E491E0938A06FE013E96E491E09308
:1022D0008B06FE013F96E491E0938C06FE0170961A
:1022E000E491E0938D0661E1CE010E940511909387
:1022F0008F0680938E0663E1CE010E9405119093B4
:1023000091068093900665E1CE010E94051190939D
:1023100093068093920680916C0690916D06892BAE
:10232000D1F080918A068093960640918B06409367
:10233000970690919506992371F0913079F49091D8
:102340008C06891714F49093960680918D06841755
:1023500014F480939706DF91CF910895309187060A
:1023600020918906082E000C990B622F022E000C7A
:10237000770B630F711D37FD7A95861797071CF44D
:10238000320F30939606241734F720939706E3CF45
:102390006F927F928F929F92AF92BF92CF92DF9275
:1023A000EF92FF920F931F93CF93DF93EC01062FD1
:1023B000142F7901FC01E55AFF4F8081813009F427
:1023C00045C0D0F1823009F44BC0833009F452C0CB
:1023D000FE01EF5AFF4F00833196108337978081BB
:1023E000918147962FEFE216F10411F008F0E6C054
:1023F000E1E6EE16F10408F447C0FE01E159FF4F93
:1024000020813181820F931F9C012F5F3F4FF90183
:102410004491411142C0712C872DDF91CF911F91C2
:102420000F91FF90EF90DF90CF90BF90AF909F9073
:102430008F907F906F900895FE01E35BFF4F0190B6
:10244000F081E02DCE010995180FC2CFFE01E35BAC
:10245000FF4F0190F081E02DCE010995081BB8CF08
:10246000FE01E35BFF4F0190F081E02DCE01099565
:10247000181BAECFFE01E35BFF4F0190F081E02D12
:10248000CE010995080FA4CFF1E4EF16F10408F48A
:10249000BBCFFE01E359FF4FB3CFFC0144914E1572
:1024A0001F0409F086C00296009709F4B4CF7E019C
:1024B000FFE4EF0EF11CF701918380831086719683
:1024C0006081C7010E94DA10F701868372966081ED
:1024D000C7010E94DA10A82EF70187836E01F9E781
:1024E000CF0ED11CF6019081F701928781E0911106
:1024F00080E0F7018387FE01EE59FF4FB0806B2D1E
:10250000C7010E94DA10882EFE01ED59FF4F10819D
:10251000612FC7010E94DA10982EFE01EC59FF4F7F
:102520000081602FC7010E94DA10015041E050E0A5
:102530009A0101C0220F0A95EAF7782E721AF70164
:10254000068110160CF068CFBA94CA0101C0880F3A
:10255000BA94EAF7881AB4849A0C115001C0440F57
:102560001A95EAF7F42FF9199F2E2B2D4F2F682D6E
:10257000F70182810E946710182FF70182832B2DAB
:10258000492D682D83810E947410F7018383F1E047
:10259000BF1609F47CC0BF1608F43FC022E0B21693
:1025A00009F47BC093E0B91609F482C0082F212FEB
:1025B00038C0F9012491820F911D26CFFE01EF58FA
:1025C000FF4F00811181080F191F680160E0C601EB
:1025D0000E940511080F191F62E0C6010E94051133
:1025E000F4E0CF0ED11C8E159F0580F3F801849185
:1025F00090E0982F88273196E4918E2B009709F46C
:102600000ACFE816F90619F4C80103964DCFF80170
:102610003296E4910E0F111DE9CF202F210F082FC4
:102620000A0D482F612FCE010E946C0F882309F4F8
:10263000F3CEF701148215828E01025A1F4F4E010C
:10264000FFE58F0E911CF8016081C7010E94DA102E
:10265000682EF4016081C7010E94DA10B82E40E0B4
:10266000662DCE010E94811041E06B2DCE010E94AB
:10267000811061E0C7010E94DA108111F0CFF701EB
:1026800085818A1504F38285F6018083C5CEBA1848
:1026900021E0210F080F1B0DC4CF91E0392F301B13
:1026A00021E0210F9A1901E0080F890F130FB9CF0C
:1026B000212F2A0D982F901B01E0080F81E0890F30
:1026C000B0CFEF92FF921F93CF93DF93C82FD62FF7
:1026D0001092390688E6E82E82E0F82E10E0F70125
:1026E00061917F01E0912306F091240681E296E05A
:1026F00009958F3F9807F1F08E3F2FEF920779F3FE
:102700009C014D2F6C2F81E296E00E94C8119091A0
:102710007C06913049F030F0923041F0933041F036
:10272000180FDDCFC80FFCCFD80FFACFC81BF8CFDA
:10273000D81BF6CF812FDF91CF911F91FF90EF90A3
:102740000895CF93DF93EC016BAFEEA9FFA9019041
:10275000F081E02D0995EEA9FFA90280F381E02D1B
:10276000CE01DF91CF910994AF92BF92CF92DF92C9
:10277000EF92FF920F931F93CF93DF9300D000D07F
:102780001F92CDB7DEB78C01DC01DA96AC90DA97F8
:10279000DB96EC90DB97ED91FC91B188FE2CD12C6F
:1027A000C12CD801ED91FC9111978089D8962D917B
:1027B0003C911C82FD828B83B8E08B9FC001112469
:1027C0008C9DA0018D9D500D9C9D500D1124240FBA
:1027D000351F3A832983D8011496ED91FC919E010F
:1027E0002F5F3F4F41E06FE0C8010995F3948F2DB3
:1027F0008E198A1528F4BFEFCB1ADB0AFB1488F276
:102800000F900F900F900F900F90DF91CF911F912D
:102810000F91FF90EF90DF90CF90BF90AF90089511
:10282000089508952091E102260F3327331F2132A6
:102830003105ECF420913003FC0190E080E024307D
:1028400069F082E00895A091E1022191AC014F531B
:102850005D4FA40FB52FB11D2C930196861798F3E9
:102860008091E102680F6093E10280E0089581E0C9
:1028700008951092300381E080932F0310920A0391
:1028800061E082E10E94E40961E083E10E94E409E1
:10289000E9EBF0E080818E7F808380818D7F808373
:1028A00088E48093B80085E48093BC000895CF93BA
:1028B000DF9391E09093C0028823B9F0C091B800F3
:1028C000D091BA008091BC008A7B8093BC0060E00C
:1028D00082E10E94E40960E083E10E94E4090E9431
:1028E0003914D093BA00C093B800DF91CF91089506
:1028F000E091090380910803E81730F4F0E0E05616
:10290000FD4F808190E008958FEF9FEF08959091A3
:102910000903809108032FEF3FEF981748F4E92F40
:10292000F0E0E056FD4F208130E09F5F9093090377
:10293000C90108958091080390910903891B990B9F
:102940000895CF92DF92EF92FF920F931F93CF9350
:10295000DF937C01CB018A0120913603222389F089
:10296000EB016B01C40ED51ECC15DD0569F0699134
:10297000D701ED91FC910190F081E02DC7010995FF
:10298000F3CF642F0E941214C801DF91CF911F91E1
:102990000F91FF90EF90DF90CF900895CF92DF924C
:1029A000EF92FF920F931F93CF93DF93EC01962F3B
:1029B000683109F44BC0B901993130F49431C9F050
:1029C000973189F080E006C0993109F461C09032F6
:1029D000C9F781E0DF91CF911F910F91FF90EF90A8
:1029E000DF90CF90089550E080E794E00E94A1141A
:1029F000F0CF8C859D85AE85BF85892B8A2B8B2B4F
:102A000071F4E881F981A585B0E020EA36E841E07B
:102A100050E00E945A286C877D878E879F8710928E
:102A200009031092080310923703109259030E9471
:102A3000391480E194E1909307038093060381E1C8
:102A400094E19093050380930403C3CF2C853D85C7
:102A50004E855F8560E074E284EF90E00E9432284A
:102A600020513109410951095695479537952795C8
:102A70002093B8008E8990E09595879591E090938A
:102A80003603809358031092370310925903A1CF55
:102A9000D0915903D13208F093C0C09158030E94DD
:102AA000560A6B017C0180913003811164C082E081
:102AB0008093300381E080932F038FEF80932E0368
:102AC00010922D03D0932C03A8E3B3E0ECE0F3E0E5
:102AD00080E0D8137CC010920B0380910B03CC0FC5
:102AE000C82BC0930B0380910A03813009F073C097
:102AF00010920A030E94560A6B017C0180910B031D
:102B00008093BB008091320390913303A0913403F2
:102B1000B0913503892B8A2B8B2B99F00E94560A92
:102B20000091320310913303209134033091350327
:102B30006C197D098E099F090617170728073907A1
:102B4000D8F18091BC0083FDD9CF85EC8093BC0087
:102B50000E94560A6B017C01809130038230E9F1BA
:102B600080912E038F3F61F180912E03803241F1DD
:102B700080912E0325C08091320390913303A09160
:102B80003403B0913503892B8A2B8B2B09F48BCF1F
:102B90000E94560A009132031091330320913403AE
:102BA000309135036C197D098E099F0906171707A7
:102BB0002807390708F077CF809131030E94571416
:102BC00010923703109259031092360302CF9D9151
:102BD00091938F5F7ECF85EEB9CF80913203909134
:102BE0003303A0913403B0913503892B8A2B8B2BAF
:102BF00009F4B2CF0E94560A0091320310913303B8
:102C000020913403309135036C197D098E099F0999
:102C1000061717072807390708F09ECFCDCFCF93A7
:102C2000DF931F92CDB7DEB769832091360322234D
:102C3000F9F020915903203258F021E030E0FC01F6
:102C40003383228390E080E00F90DF91CF9108954D
:102C500080913703E82FF0E0E85CFC4F9981908386
:102C60008F5F809337038093590381E090E0ECCF2E
:102C700061E0CE0101960E941214F7CFCF92DF924D
:102C8000EF92FF920F931F93CF93DF936C01EB01B1
:102C90007B01E40EF51E10E000E0CE15DF0561F0CB
:102CA0006991D601ED91FC910190F081E02DC60172
:102CB0000995080F191FF1CFC801DF91CF911F911E
:102CC0000F91FF90EF90DF90CF900895CF92DF9219
:102CD000EF92FF920F931F93CF93DF93EC016C0160
:102CE00024E0C20ED11CFC01E158FF4F0190F0819D
:102CF000E02DC60109958E3FEFEF9E07C8F48E01C7
:102D00000E571F4F7E01F1E8EF0EF11C9C01F801F8
:102D10004081F7016081C6010E94C811C15ADF4F8E
:102D200098819130A9F078F09230A1F09330B9F009
:102D300081E090E0DF91CF911F910F91FF90EF9094
:102D4000DF90CF900895F7019081890F8083F0CFB5
:102D5000F801FACFF7019081981B892FF7CFF8017E
:102D6000FACF089590E080E00895FC0101900020E2
:102D7000E9F73197AF01481B590BBC018DE196E093
:102D80000C943E168F929F92AF92BF920F931F9317
:102D9000CF93DF93CDB7DEB7A1970FB6F894DEBF20
:102DA0000FBECDBF19A2423008F44AE08E010F5D7C
:102DB0001F4F842E912CB12CA12CA50194010E94AF
:102DC0003228E62FB901CA01EA30F4F4E05DD801F7
:102DD000EE938D01232B242B252B79F790E080E0B7
:102DE000109719F0CD010E94B516A1960FB6F89470
:102DF000DEBF0FBECDBFDF91CF911F910F91BF906E
:102E0000AF909F908F900895E95CE1CFCF92DF92D1
:102E1000EF92FF92CF93DF936C01990FEE08FF08BA
:102E2000F7FE19C06DE28DE196E00E946616EC0196
:102E300066277727CB016C197D098E099F094AE027
:102E40000E94C2168C0F9D1FDF91CF91FF90EF90D3
:102E5000DF90CF9008954AE0C701B601DF91CF918E
:102E6000FF90EF90DF90CF900C94C2164F925F923C
:102E70006F927F928F929F92AF92BF92CF92DF928A
:102E8000EF92FF920F931F93CF936B017C01742EEF
:102E9000AC019B010E940428882399F08AE692E005
:102EA000CF911F910F91FF90EF90DF90CF90BF9047
:102EB000AF909F908F907F906F905F904F900C9409
:102EC000B51646015701E894B7F82FEF3FEF4FE7EB
:102ED0005FE7C501B4010E94042881110DC02FEFE6
:102EE0003FEF4FE75FE7C501B4010E949225181636
:102EF0001CF48EE692E0D4CF2FEF3FEF4FE75FE474
:102F0000C701B6010E944C2718161CF482E792E014
:102F1000C7CF2FEF3FEF4FE75FECC701B6010E942D
:102F2000922587FDF3CF20E030E0A901C701B6016B
:102F30000E94922510E000E087FF0AC06DE28DE15B
:102F400096E00E9466168C01F7FAF094F7F8F09478
:102F5000C0E060E070E080E09FE37C1641F020E09C
:102F600030E040E251E40E949725CF5FF6CFA70101
:102F700096010E940B252B013C010E9410264B015B
:102F80005C014AE00E94C2167C01E00EF11ECC23D7
:102F9000C1F1C501B4010E943F269B01AC01C301F0
:102FA000B2010E940A254B015C016EE28DE196E0C0
:102FB0000E946616E80EF91EC15018F120E030E0BC
:102FC00040E251E4C501B4010E9451272B013C01AC
:102FD0000E9410264B01B12CA12C4AE0C501B4017E
:102FE0000E94C216E80EF91EC501B4010E943F26D8
:102FF0009B01AC01C301B2010E940A254B015C0197
:10300000DBCFC701CF911F910F91FF90EF90DF9021
:10301000CF90BF90AF909F908F907F906F905F9078
:103020004F900895FC01A081B18150962C9182AD02
:1030300038E0839FC0011124289FA001299F500DD3
:10304000112470E060E080AD91AD0C9488281F934E
:10305000CF93DF93EC010E94B4131BAD8AAD180F20
:10306000E881F9818189181768F0EC81FD8130E0F1
:1030700020E040E060E1CE01099580E0DF91CF9152
:103080001F910895FE01E658FF4F8081882319F0B3
:10309000CE010E941218612FCE010E94A11381E07F
:1030A000EDCFCF93DF93EC01FC01E658FF4F808119
:1030B000882319F0CE010E94121860E0CE01DF9142
:1030C000CF910C94A11385ED8093BC0080913203C5
:1030D00090913303A0913403B09135030796A11D5D
:1030E000B11D23E0B695A795979587952A95D1F7B9
:1030F0002091BC0024FD03C010923003089540913C
:103100003203509133036091340370913503452BA2
:10311000462B472B69F30097A105B10541F025E344
:103120002A95F1F700000197A109B109E1CF80913B
:1031300031030C945714FF920F931F93CF93DF9397
:10314000EC018B01FB01F0800E94F424F81621F0C1
:103150006F2DCE010E94FC24F801F1802196CE0152
:103160000E94F424F81621F06F2DCE010E94FC2459
:10317000C801DF91CF911F910F91FF9008950F9398
:103180001F93CF93DF938C01EB010E94F42488837B
:10319000C80101960E94F4248983CE01DF91CF916A
:1031A0001F910F9108951F920F920FB60F92112445
:1031B0002F933F934F935F936F937F938F939F933F
:1031C000AF93BF93EF93FF9383ED93E00E940009C9
:1031D000FF91EF91BF91AF919F918F917F916F91EF
:1031E0005F914F913F912F910F900FBE0F901F90C5
:1031F00018951F920F920FB60F9211242F938F9351
:103200009F93EF93FF93E091E303F091E4038081B8
:10321000E091E903F091EA0382FD1BC09081809167
:10322000EC038F5F8F732091ED03821741F0E091E3
:10323000EC03F0E0ED52FC4F958F8093EC03FF918F
:10324000EF919F918F912F910F900FBE0F901F9034
:1032500018958081F4CF1F920F920FB60F92112410
:103260002F933F938F939F93AF93BF9380919C0332
:1032700090919D03A0919E03B0919F0330919B0379
:1032800023E0230F2D3758F50196A11DB11D209382
:103290009B0380939C0390939D03A0939E03B09304
:1032A0009F038091A0039091A103A091A203B091EC
:1032B000A3030196A11DB11D8093A0039093A103C8
:1032C000A093A203B093A303BF91AF919F918F915D
:1032D0003F912F910F900FBE0F901F90189526E8E9
:1032E000230F0296A11DB11DD2CF1F920F920FB6D0
:1032F0000F9211242F933F934F935F936F937F937C
:103300008F939F93AF93BF93EF93FF93E091A603A7
:10331000F091A703309749F0A685B7858585968DEE
:1033200091FF14C09C918923A1F4FF91EF91BF916B
:10333000AF919F918F917F916F915F914F913F914D
:103340002F910F900FBE0F901F9018959C9189237D
:1033500061F7A389B4899C918589809589238C9391
:10336000868997890197F1F7608D718DA685B7855C
:10337000558538E020E0CB010197F1F7822F90E0EE
:1033800095958795282F4C91452309F02068315059
:1033900091F7868D81FD20958091A50390E001969F
:1033A0008F7399273091A403381799F0A091A50342
:1033B000B0E0A55ABC4F2C938093A503828D938DCA
:1033C0000197F1F7A389B4898C919589892B8C9306
:1033D000ACCF868D8160868FF1CF1F920F920FB692
:1033E0000F9211242F933F934F935F936F937F938B
:1033F0008F939F93AF93BF93EF93FF938091B90007
:10340000887F803609F44AC0F0F5883209F4A7C0F5
:1034100018F5803109F49BC0B8F4882309F4F9C089
:10342000883009F494C0FF91EF91BF91AF919F91C3
:103430008F917F916F915F914F913F912F910F905D
:103440000FBE0F901F901895883109F488C0803204
:1034500051F780932E0314C0803409F49DC040F4CA
:103460008033B9F38833F9F680932E0385ECB0C02E
:10347000803509F485C0883509F496C0883499F6FA
:103480000E946318D0CF883909F48CC038F588378A
:1034900029F050F4883611F0803729F683E08093C4
:1034A00030031092030357C0883809F47BC0803979
:1034B00019F0803809F0B7CF80910303803208F00B
:1034C00071C0E091030381E08E0F8093030380912C
:1034D000BB00F0E0ED51FD4F80833DC0803B39F0F3
:1034E000E0F4803A09F479C0883A09F09CCF84E08E
:1034F000809330031092E2021092E102E091060301
:10350000F091070309958091E10281110FC081E0DC
:103510008093E1021092C10209C0803C09F4A6CF59
:10352000883C09F4A3CF883B09F07DCFE091E2020B
:1035300081E08E0F8093E202F0E0EF53FD4F808137
:103540008093BB009091E2028091E10229C08091BA
:103550000B038093BB0085EC8093BC0064CF9091FB
:103560002D0380912C03981758F5E0912D0381E0ED
:103570008E0F80932D03F0E0E45FFC4F8081E9CF54
:10358000E0912D0381E08E0F80932D038091BB008D
:10359000F0E0E45FFC4F808390912D0380912C0339
:1035A0009817C8F285E8D8CFE0912D0381E08E0FFF
:1035B00080932D038091BB00F0E0E45FFC4F80839B
:1035C00080912F0381115CCF81E080930A0384EA0C
:1035D0008093BC001092300326CF85EC8093BC0012
:1035E0001092300380910303803230F4E0910303A2
:1035F000F0E0ED51FD4F10826091030370E0E09127
:103600000403F091050383EE92E009951092030301
:103610000ACF10922E0334CFCF93DF931092D603AC
:103620001092D50388EE93E0A0E0B0E08093D7033A
:103630009093D803A093D903B093DA032AE132E040
:103640003093D4032093D30325EC30E03093E00390
:103650002093DF0324EC30E03093E2032093E10376
:1036600020EC30E03093E4032093E30321EC30E0DE
:103670003093E6032093E50322EC30E03093E80337
:103680002093E70326EC30E03093EA032093E9032C
:103690001092EC031092ED031092EE031092EF03E0
:1036A00010927304109272048093740490937504C2
:1036B000A0937604B09377048CE292E09093710427
:1036C000809370041092200610921F0680EB97E002
:1036D00090939D0680939C0610929E0610929F06E2
:1036E000109239068AE592E090931E0680931D069B
:1036F00010922206109221061092360610922D0684
:1037000010922E0610922F06109230068FEF8093A3
:10371000370680933B06EFE3F6E085E596E0CFEFD2
:10372000C1938E179F07E1F783EB9DE090932606E8
:103730008093250688EA9EE09093280680932706CA
:103740008EEC94E190932A06809329068EEA9AE003
:1037500090932C0680932B0630E020E040E069E057
:1037600081E296E00E94B30D10926D0610926C06F5
:103770008AEB97E090935606809355068CE794E089
:1037800090935A068093590682E080935B061092CC
:103790005C061092790610929906D1E0D0939A06B1
:1037A000D0939B0682E692E090935806809357064A
:1037B00081E296E00E94290F1092680610926A0634
:1037C000C0936906C0936B06E0915706F0915806C6
:1037D0000280F381E02D81E296E009958DE198E089
:1037E00090936F0680936E0610927C06C0934A06F3
:1037F000C0934B06C0934C0610920106109200062F
:1038000088EE93E0A0E0B0E0809302069093030678
:10381000A0930406B093050688E492E09093FF0518
:103820008093FE051092150610921406109217064A
:1038300010921606109219061092180610921B0686
:1038400010921A0680911C068E7F8D7F80931C0635
:1038500081FB662760F96D2783E00E94E40961E03F
:1038600083E00E94160AEDEEF0E0E491E0930E068C
:10387000E9EDF0E0E491F0E0EE0FFF1FE453FF4FBD
:10388000859194919093100680930F0660E082E0FA
:103890000E94160A80911C0681FD04C061E082E04E
:1038A0000E94E40982E080930A06ECEEF0E0E491E5
:1038B000E0930B06E8EDF0E0E491F0E0EE0FFF1F7F
:1038C000EE53FF4F8591949190930D0680930C06D3
:1038D00085E08093F0058BE08093F105EFEEF0E05A
:1038E000E491E093F205EBEDF0E0E491E093F30571
:1038F00080E89EE3A0E0B0E08093F8059093F9059E
:10390000A093FA05B093FB0510927E0510928205F4
:1039100010928105109283058EE392E090937D05CD
:1039200080937C05E8E9F5E0108214821382158209
:10393000369685E0E43DF807B9F781EA91E0909387
:10394000DF058093DE058EE991E09093E105809399
:10395000E00584E08093E20583E08093E30585EA57
:1039600091E09093DD058093DC058AE090E09093F0
:10397000E5058093E40584EF91E09093E70580935B
:10398000E6051092EA051092E9051092D80510920A
:10399000D9051092DA051092DB051092E805DF9147
:1039A000CF910895789484B5826084BD84B5816098
:1039B00084BD85B5826085BD85B5816085BD8091FA
:1039C0006E00816080936E00109281008091810072
:1039D000826080938100809181008160809381006A
:1039E000809180008160809380008091B10084602C
:1039F0008093B1008091B00081608093B00080918D
:103A00007A00846080937A0080917A00826080934B
:103A10007A0080917A00816080937A0080917A00A8
:103A2000806880937A001092C100E091E303F091E6
:103A3000E40382E08083E091DF03F091E0031082F1
:103A4000E091E103F091E2038FEC80831092EB03AD
:103A5000E091E703F091E80386E08083E091E503DD
:103A6000F091E603808180618083E091E503F0912D
:103A7000E603808188608083E091E503F091E603AE
:103A8000808180688083E091E503F091E603808186
:103A90008F7D8083109219061092180610921706D7
:103AA0001092160610921506109214068FE190E0FF
:103AB00090931B0680931A0690910A06963108F09F
:103AC00047C021E030E030931506209314062DE125
:103AD00030E030931706209316062DE030E0309347
:103AE0001906209318062091680084E0983048F069
:103AF00031E09E3008F430E081E001C0880F3A9553
:103B0000EAF7822B809368002DE630E0983050F081
:103B10002BE630E09E3030F02CE630E0963110F0AD
:103B200030E020E03093120620931106292F30E078
:103B3000983008F0C8C081E001C0880F9A95EAF774
:103B40008093130680911A0690911B060197F1F756
:103B50008091180690911906892B49F1E091A603EE
:103B6000F091A70345E0EE3FF40709F1309739F0F3
:103B7000A389B4899C918589809589238C938091B0
:103B80001C068E7F80931C061092A5031092A4033E
:103B90008EEF95E09093A7038093A603E091110622
:103BA000F0911206808190911306892B808360E04A
:103BB00084E00E94160A60E086E00E94160AE09106
:103BC0002506F091260630E020E040E06AE081E240
:103BD00096E0099581E296E00E94511881E296E014
:103BE0000E9427188111FACF60E081E296E00E94DE
:103BF000A113E0912506F091260630E020E040E098
:103C00006BE081E296E0099562E08091F0050E9408
:103C1000160A0E94190B605D774081099109609333
:103C2000F4057093F5058093F6059093F70587E307
:103C30008093FD056CEC73E090E080E00E94BF187B
:103C400064EC73E081E090E00E94BF18F8EB8F2EE7
:103C5000F5E09F2EBB24B39481E296E00E945118B8
:103C6000E0EB2E2EE7E03E2EB092E8050E94190B05
:103C70000091D8051091D9052091DA053091DB0526
:103C8000AB01BC01401B510B620B730B8091E4052F
:103C90009091E505B0E0A0E084179507A607B70767
:103CA00008F014C1C0E08091E205C817C8F4E091A3
:103CB000DE05F091DF05EC0FF11D62E080810E94CE
:103CC000160ACF5FF0CF9E3040F42850310981E0D2
:103CD00001C0880F2A95EAF733CF2E503109F7CF6C
:103CE000712C8091E305781608F061C0072D10E073
:103CF000E091E005F091E105E00FF11F61E08081C6
:103D00000E94160AE091E005F091E105E00FF11F35
:103D100060E080810E94E40981E090E0A0E0B0E0F2
:103D2000072C04C0880F991FAA1FBB1F0A94D2F743
:103D30006C017C01E094F094612C8091E20568169E
:103D4000F8F4C62DD0E0E091DE05F091DF05EC0F30
:103D5000FD1F80810E94B8092496CC0FDD1FC45836
:103D6000DA4F892B41F4888199818C299D29998387
:103D700088836394E2CF888199818E219F21F7CF38
:103D8000E091E005F091E105E00FF11F61E0808135
:103D90000E94E4098091E0059091E105080F191F48
:103DA00060E0F80180810E94160A73949ACF6CE754
:103DB000C62E65E0D62EE6018F8D98A1892B31F4B1
:103DC0001C8E8FEF9FEF9E8F8D8F19A226968C16DB
:103DD0009D0691F710E08091E205181708F053C096
:103DE00000E0E12EF12CEE0CFF1CF701EC57FA4F2E
:103DF0007F012091E305021708F043C0F7016081BD
:103E00007181002E02C0769567950A94E2F7129FA1
:103E100090011124200F311DECE7F5E080E0458D85
:103E2000568D2417350709F4C1C58F5F36968A3041
:103E3000B1F760FF24C0ECE7F5E090E080E0448D4E
:103E4000411118C0E091DC05F091DD05E20FF31F90
:103E5000608146E0489FF001499FF00D1124E4582D
:103E6000FA4F648F368F258F10A2178E61E00E9463
:103E70002B0C05C0019636968A30910501F70F5F2D
:103E8000B8CF1F5FA8CF10E0F60181A18111182FD4
:103E9000F6E0CF0ED11CCC15DD05B1F70E94190B51
:103EA0006093D8057093D9058093DA059093DB056C
:103EB000112361F080919D05882341F080919B053D
:103EC00090919C05C0919805019719F01092E80512
:103ED000C0E086E00E94B809892B09F44CC0C933C0
:103EE00009F449C0C73309F054C01092D20384E0EA
:103EF0000E94B809019709F0F7C18EEF95E00E9482
:103F0000FC0C892B09F4A7C18EEF95E00E94140DDB
:103F10008935910509F09FC19093AB038093AA0363
:103F20008EEF95E00E94140D8935910509F093C13B
:103F30009093AD038093AC0382E090E09093A9034B
:103F40008093A803C091A803D091A903C930D105DB
:103F50000CF03AC18EEF95E00E94140DFE01EE0FB9
:103F6000FF1FE655FC4F918380832196D093A903D0
:103F7000C093A803E7CF0E94190B28EE33E040E07E
:103F800050E00E94322820FF26C0C93321F1109250
:103F90009D01EDEDEC0FE63108F0A9CF0E2E000CDF
:103FA000FF0BEB52F04E0C945428D020771F771F54
:103FB000771F771F771F771F9F20771F771F771F28
:103FC000771F771F8E2068206B2075207820C720F0
:103FD0008220771F88200E94250B882341F0809142
:103FE000F1058C3009F454C038F48B30F1F060E006
:103FF00070E080EC9FE741C085518230C0F7D091DE
:10400000ED056D2F70E0762F662766277F7780910C
:10401000EE05682B90E080E00E943F262DEC3CEC02
:104020004CEC5DE30E9451274FC06091ED0570E0BC
:1040300090E080E00E943F266B017C01D091EE056C
:10404000D7FF0AC0AC019B0160E070E080E89FEB05
:104050000E940A256B017C01DF706D2F70E090E0FB
:1040600080E00E9441262DEC3CEC4CEC5DE30E948C
:104070005127A70196010E940B250E9409267093E3
:10408000D1036093D003B092D203B0929D0181CF4F
:10409000D091ED056D2F70E090E080E00E943F260A
:1040A0006B017C016091EE056F7070E090E080E044
:1040B0000E9441262DEC3CEC4CEC5DE30E94512724
:1040C000A70196010E940B25D7FFD7CF9058D5CFD7
:1040D00010929C010CCF8091CA039091CB03019662
:1040E0009093CB038093CA0302CFB0929C01FFCE82
:1040F0008091CE039091CF0301979093CF0380934B
:10410000CE03F5CE8091CE039091CF030196F5CFEB
:104110008091CA039091CB030197E2CF1092C00324
:104120001092C1031092C2031092C3031092C603EF
:104130001092C7031092C8031092C903D8CE809181
:10414000CC039091CD032091CE033091CF03820F09
:10415000931F9093CD038093CC038091C4039091DF
:10416000C5032091CA033091CB03820F931F909314
:10417000C5038093C4036CEC73E090E080E00E9480
:104180009B1864EC73E081E090E00E949B18109211
:10419000CF031092CE031092CB031092CA03A7CE86
:1041A000D0E0C0E060E0CE010E94FC242196C11561
:1041B00044E0D407B9F71092CD031092CC031092CB
:1041C000C5031092C403E3CF6091AE037091AF03B7
:1041D0008091B0039091B1032091AA033091AB0379
:1041E0004091AC035091AD03240F351F260F371FAC
:1041F000280F391F4091B2035091B303240F351F8C
:104200004091B4035091B503420F531F2091B60360
:104210003091B703420F531F2091B8033091B90377
:10422000240F351F4091BA035091BB032417150684
:1042300091F4982F8827680F791F072E000C880BA0
:10424000990B0E9441266093C0037093C103809331
:10425000C2039093C30320E030E048EC52E4609145
:10426000C0037091C1038091C2039091C3030E9467
:10427000972522ED32E24BEF5FE30E9451272FECAE
:1042800037E14DE053E40E9497250E94772520E016
:1042900030E040E05FE30E94512720E030E044E35B
:1042A00053E40E9451272BED3FE049E450E40E9483
:1042B00097256B017C0122E538EB4EEF5FE30E940E
:1042C000922518160CF405C31092C6031092C7036A
:1042D0001092C8031092C9031092BC031092BD0340
:1042E0001092BE031092BF038EEB9BE00E9411114F
:1042F000B0927C068091D203882309F4C5C08091D6
:10430000D0039091D103892B09F4BEC0C091CE0394
:104310008091CC03C80FCC5D6091CA037091CB0330
:10432000685B7F4F072E000C880B990B0E9441267B
:104330002091C6033091C7034091C8035091C9032F
:104340000E940A256B017C016091C4037091C50332
:10435000072E000C880B990B0E9441269B01AC0193
:10436000C701B6010E940B250E941026862F3092AD
:104370002406209223066C2F0E94611380919D01D8
:10438000882309F447C0C091CE038091CC03C80FA5
:10439000CE5D80916606C817E8F180916706C81760
:1043A000C8F56091CA037091CB03625B7F4F072E03
:1043B000000C880B990B0E9441262091C603309176
:1043C000C7034091C8035091C9030E940A256B019D
:1043D0007C016091C4037091C503072E000C880B0B
:1043E000990B0E9441269B01AC01C701B6010E94B6
:1043F0000B250E94102680916406681758F0809162
:104400006506681738F400E021E04C2F81E296E061
:104410000E94FD0FC091CE038091CC03C80FC95EEE
:104420006091CA037091CB03685B7F4F072E000C2D
:10443000880B990B0E9441262091C6033091C70337
:104440004091C8035091C9030E940A256B017C0169
:104450006091C4037091C503072E000C880B990B63
:104460000E9441269B01AC01C701B6010E940B25A9
:104470000E94102660939E06C0939F068091D003F1
:104480009091D1030E9406178091CE039091CF03A3
:10449000C091CA03D091CB03009719F4209709F477
:1044A000DEC01091CC03180F1E5DBE01645A7F4F11
:1044B000072E000C880B990B0E9441262091C60301
:1044C0003091C7034091C8035091C9030E940A2547
:1044D0006B017C016091C4037091C503072E000C31
:1044E000880B990B0E9441269B01AC01C701B601C4
:1044F0000E940B250E94102660939E0610939F0633
:10450000CE010E940617D091CE031091CF03C09127
:10451000CC03CD0FCE5D6091CA037091CB036E5A70
:104520007F4F072E000C880B990B0E94412620918B
:10453000C6033091C7034091C8035091C9030E943C
:104540000A256B017C016091C4037091C503072E9D
:10455000000C880B990B0E9441269B01AC01C701FE
:10456000B6010E940B250E94102660939E06C09300
:104570009F068D2F912F0E94061788E395E00E94D9
:104580001111C091CE038091CC03C80FC85E609119
:10459000CA037091CB03675A7F4F072E000C880B1C
:1045A000990B0E9441262091C6033091C703409188
:1045B000C8035091C9030E940A256B017C016091D8
:1045C000C4037091C503072E000C880B990B0E9441
:1045D00041269B01AC01C701B6010E940B250E9438
:1045E000102623EB35E24C2F81E296E00E94C811A1
:1045F000C091CE038091CC03C80FC85E6091CA03FE
:104600007091CB03615B7F4F072E000C880B990BD9
:104610000E9441262091C6033091C7034091C803F0
:104620005091C9030E940A256B017C016091C4036B
:104630007091C503072E000C880B990B0E94412630
:104640009B01AC01C701B6010E940B250E941026F8
:1046500027EB35E24C2F81E296E00E94C811A09032
:10466000CE034091CC03A40EC091CA03D091CB03DA
:104670004090C6035090C7036090C8037090C90370
:104680006091C4037091C503072E000C880B990B31
:104690000E9441266B017C0180919C01882309F4D2
:1046A00052C116E01A0DBE016C5C7F4F072E000C44
:1046B000880B990B0E944126A30192010E940A25B2
:1046C000A70196010E940B250E941026762E9AE3E0
:1046D000A90E85E1682E670C0A2D262D412F672D26
:1046E00081E296E00E946C0F8823A1F1C0E0D1E046
:1046F00044244394410E042D262D412F672D81E241
:1047000096E00E946C0F882309F150909A06D72CEE
:104710007E01CC24C394F70180818C2109F404C16B
:1047200050929A0600E021E0412F6D2D81E296E043
:104730000E94FD0FD394CC0C29F4FFEFEF1AFF0A6F
:10474000CC24C3946D10E7CF50929A062396142D73
:10475000A410CECF8EEF90E00E941111C091CE0335
:104760008091CC03C80FC95E6091CA037091CB03DE
:10477000645D7F4F072E000C880B990B0E94412629
:104780002091C6033091C7034091C8035091C903DB
:104790000E940A256B017C016091C4037091C503DE
:1047A000072E000C880B990B0E9441269B01AC013F
:1047B000C701B6010E940B250E94102660939E0639
:1047C000C0939F06C090C003D090C103E090C20385
:1047D000F090C30320E030E0A901C701B6010E94B8
:1047E0004C2787FDABC020E030E84BEB54E4C70119
:1047F000B6010E94922587FFA1C020E030E048EC7E
:1048000052E4C701B6010E94972542E00E94361784
:10481000C090C603D090C703E090C803F090C903CE
:1048200020E030E0A901C701B6010E94922588234B
:10483000E9F18EEB9BE00E941111C091CE038091B3
:10484000CC03C80FC75E6091CA037091CB036A5C4A
:104850007F4F072E000C880B990B0E944126A70161
:1048600096010E940A256B017C016091C40370913E
:10487000C503072E000C880B990B0E9441269B0153
:10488000AC01C701B6010E940B250E94102660935F
:104890009E06C0939F066091BC037091BD038091FA
:1048A000BE039091BF0342E00E94361781E296E07A
:1048B0000E9427188111D8C980E090E0892B09F463
:1048C000CBC90E94EC08882309F4C6C90E940000E5
:1048D000C3C922E538EB4EEF5FE3C701B6010E9482
:1048E0004C2787FD01CD22E538EB4EEF5FE3C70192
:1048F000B6010E940A256B017C012AE939E949EADF
:1049000050E40E9451276093C6037093C7038093BD
:10491000C8039093C903C092BC03D092BD03E09238
:10492000BE03F092BF03E0CC80919906811102CFC3
:1049300081E0511080E080939A06F4CE86E792E001
:104940000E94B51665CF1FE11A0DBE01625C7F4F54
:10495000072E000C880B990B0E944126A30192019F
:104960000E940A25A70196010E940B250E9410268D
:10497000C62F22E0260F01E20A0D412F81E296E0C8
:104980000E946C0F882309F491CF00E022E0412FB0
:104990006C2F81E296E00E94FD0F40E24A0D22E07A
:1049A0006C2F81E296E00E94FD0F80CF61705FCA9C
:1049B00088E492E09093FF058093FE058091A60322
:1049C0009091A7038E5F954071F4E0911106F091EC
:1049D000120690818091130680958923808310921E
:1049E000A7031092A6030895F999FECF92BD81BD49
:1049F000F89A992780B50895262FF999FECF1FBA06
:104A000092BD81BD20BD0FB6F894FA9AF99A0FBEF7
:104A1000019608955058BB27AA270E9422250C947E
:104A200012270E94042738F00E940B2720F039F447
:104A30009F3F19F426F40C94C6260EF4E095E7FB8C
:104A40000C94C026E92F0E94232758F3BA17620757
:104A500073078407950720F079F4A6F50C94452791
:104A60000EF4E0950B2EBA2FA02D0B01B901900189
:104A70000C01CA01A0011124FF27591B99F0593FCD
:104A800050F4503E68F11A16F040A22F232F342F15
:104A90004427585FF3CF469537952795A795F04063
:104AA0005395C9F77EF41F16BA0B620B730B840B78
:104AB000BAF09150A1F0FF0FBB1F661F771F881F30
:104AC000C2F70EC0BA0F621F731F841F48F4879588
:104AD00077956795B795F7959E3F08F0B0CF93957A
:104AE000880F08F09927EE0F9795879508959F9363
:104AF0009F77EEE389379E0728F4E8E6F0E00E940E
:104B0000F0260CC00E947C269058A2EA2AED3FE0D5
:104B100049EC5FE30E9422250E9412270F9007FCB8
:104B2000905808950E949C2608F481E008950E9400
:104B3000AB250C9412270E940B2758F00E940427E3
:104B400040F029F45F3F29F00C94C02651110C94D9
:104B500046270C94C6260E94232768F39923B1F3B5
:104B6000552391F3951B550BBB27AA276217730793
:104B7000840738F09F5F5F4F220F331F441FAA1F27
:104B8000A9F335D00E2E3AF0E0E832D091505040E3
:104B9000E695001CCAF72BD0FE2F29D0660F771F91
:104BA000881FBB1F261737074807AB07B0E809F077
:104BB000BB0B802DBF01FF2793585F4F3AF09E3FFC
:104BC000510578F00C94C0260C9446275F3FE4F31F
:104BD000983ED4F3869577956795B795F7959F5F3F
:104BE000C9F7880F911D9695879597F90895E1E08B
:104BF000660F771F881FBB1F621773078407BA07EA
:104C000020F0621B730B840BBA0BEE1F88F7E09544
:104C100008950E9410266894B1110C9446270895B7
:104C20000E942B2788F09F5798F0B92F9927B751EA
:104C3000B0F0E1F0660F771F881F991F1AF0BA9540
:104C4000C9F714C0B13091F00E944527B1E0089532
:104C50000C944527672F782F8827B85F39F0B93F24
:104C6000CCF3869577956795B395D9F73EF49095F3
:104C70008095709561957F4F8F4F9F4F0895E89471
:104C800009C097FB3EF490958095709561957F4F94
:104C90008F4F9F4F9923A9F0F92F96E9BB27939542
:104CA000F695879577956795B795F111F8CFFAF452
:104CB000BB0F11F460FF1BC06F5F7F4F8F4F9F4F83
:104CC00016C0882311F096E911C0772321F09EE8E1
:104CD000872F762F05C0662371F096E8862F70E047
:104CE00060E02AF09A95660F771F881FDAF7880F21
:104CF0009695879597F90895DF93CF931F930F9318
:104D00008B01EC01ECE7F0E00E94C9260E9412271B
:104D10009801AE018B01EC0160E070E080E89FE358
:104D20000E940A250E94C4279801AE010F911F918D
:104D3000CF91DF910C946427990F0008550FAA0BAF
:104D4000E0E8FEEF16161706E807F907C0F012169E
:104D50001306E407F50798F0621B730B840B950BA1
:104D600039F40A2661F0232B242B252B21F40895F6
:104D70000A2609F4A140A6958FEF811D811D089593
:104D800097F99F6780E870E060E008959FEF80ECFE
:104D90000895DF93CF931F930F93FF92EF92DF92CB
:104DA0007B018C01689406C0DA2EEF010E94642713
:104DB000FE01E894A5912591359145915591A6F371
:104DC000EF010E942225FE019701A801DA9469F7FC
:104DD000DF90EF90FF900F911F91CF91DF91089599
:104DE0009F938F937F936F93FF93EF939B01AC01FE
:104DF0000E945127EF91FF910E94C9262F913F9168
:104E00004F915F910C94512700240A9416161706AF
:104E100018060906089500240A94121613061406AB
:104E200005060895092E0394000C11F4882352F00E
:104E3000BB0F40F4BF2B11F460FF04C06F5F7F4FC6
:104E40008F4F9F4F089557FD9058440F551F59F0AD
:104E50005F3F71F04795880F97FB991F61F09F3F67
:104E600079F087950895121613061406551FF2CF90
:104E70004695F1DF08C0161617061806991FF1CFE0
:104E800086957105610508940895E894BB27662707
:104E90007727CB0197F908950E949C2608F48FEF9D
:104EA00008950E9464270C9412270E94042738F06A
:104EB0000E940B2720F0952311F00C94C0260C942F
:104EC000C62611240C9446270E94232770F3959F31
:104ED000C1F3950F50E0551F629FF001729FBB27F1
:104EE000F00DB11D639FAA27F00DB11DAA1F649F8D
:104EF0006627B00DA11D661F829F2227B00DA11D40
:104F0000621F739FB00DA11D621F839FA00D611DC5
:104F1000221F749F3327A00D611D231F849F600DE6
:104F2000211D822F762F6A2F11249F5750409AF00F
:104F3000F1F088234AF0EE0FFF1FBB1F661F771F9B
:104F4000881F91505040A9F79E3F510580F00C9466
:104F5000C0260C9446275F3FE4F3983ED4F3869531
:104F600077956795B795F795E7959F5FC1F7FE2B06
:104F7000880F911D9695879597F9089519F416F461
:104F80000C94C6260C9409280E942B27B8F3992369
:104F9000C9F3B6F39F57550B87FF0E9417280024CB
:104FA000A0E640EA900180585695979528F4805CD9
:104FB000660F771F881F20F026173707480730F441
:104FC000621B730B840B202931294A2BA695179459
:104FD0000794202531254A2758F7660F771F881F29
:104FE00020F026173707480730F4620B730B840B49
:104FF000200D311D411DA09581F7B901842F9158D5
:10500000880F9695879508950E949C26880B990B8A
:1050100008959F3F31F0915020F4879577956795DB
:10502000B795880F911D9695879597F9089591509A
:105030005040660F771F881FD2F7089597FB072E01
:1050400016F4009407D077FD09D00E94652807FC6C
:1050500005D03EF4909581959F4F08957095619588
:105060007F4F0895A1E21A2EAA1BBB1BFD010DC0A4
:10507000AA1FBB1FEE1FFF1FA217B307E407F50708
:1050800020F0A21BB30BE40BF50B661F771F881FE4
:10509000991F1A9469F760957095809590959B017A
:1050A000AC01BD01CF010895EE0FFF1F0590F491F3
:1050B000E02D09940E947928A59F900DB49F900D32
:1050C000A49F800D911D11240895AA1BBB1B51E1C3
:1050D00007C0AA1FBB1FA617B70710F0A61BB70B68
:1050E000881F991F5A95A9F780959095BC01CD010D
:1050F0000895A29FB001B39FC001A39F700D811DB1
:105100001124911DB29F700D811D1124911D0895D0
:10511000DC0101C06D9341505040E0F7089517E065
:10512000C5E8D7E004C0FE010E9454282196C63885
:08513000D107C9F7F894FFCF85
:10513800000CE0001EE0003FE08073E0C0E1E0E02A
:10514800C0E17080E33800E71C00EE0E00FC0700A9
:10515800F80400F00400E00400E00400E00400E0CB
:105168000400E00400E00400E00400E00400E004BF
:1051780000E00400E00400E00400E0040CE0040C9B
:10518800E00400E00400E00400E00400E00400E0C3
:105198000400E00400E00400E00400E00400E0048F
:1051A80000E00400E00400E00400F00700F80E004E
:1051B800FC1C00EE3800E77080E3E0C0E1C0E1E0ED
:1051C8008073E0003FE0001EE0000CE001010D0CE0
:1051D8000B0A09080723302A393837363534333271
:1051E800311815A015C019FF1815A115C819FF18F1
:1051F80015AE19FF1815AF19FF1815AE15D516807D
:1052080015A8163F15D316001540158D1614152030
:10521800160015A115C815DA1612158116CF15D95D
:1052280016F115DB1640152E15A415A619FF000159
:10523800140A6464323200127A00000428961008B6
:105248000000800040000000000022098208AF082A
:105258006F09E008BE08D208000000000F16A1146C
:10526800B2169F0C9A148714781400000000520A92
:10527800120AE10900000000A00C8208B2169F0C77
:10528800FC0C140D870C0000000066163E16B216C2
:10529800B116290F930F120F43006E616E00696EED
:0C52A80066006F7666003F2E3F3F3F001F
:00000001FF
